:100EB500446174650054696D650041646A757374B5
:100EC50000414C41524D0053455420202020204ED6
:080ED500616E6F644161610070
:100F8900120C6B12105A121061120F021210471232
:0F0F99001051120D9D120C037F32120FF980F0D0
:100CBC007BFF7A0E79B5E4FDFF120E1C7BFF7A0EDA
:100CCC0079BAE4FD7F01120E1C7B3A7D0A7F01127A
:100CDC000FC67B3A7D0D7F01120FC67B2D7D0AE47A
:100CEC00FF120FC67B2D7D0DE4FF120FC67B327DEC
:0F0CFC0006E4FF120FC67B307D07E4FF020FC630
:100D0B007BFF7A0E79BFE4FD7F01120E1C7BFF7A0D
:100D1B000E79BAE4FDFF120E1C7B3A7D0A7F01129D
:100D2B000FC67B3A7D0D7F01120FC67B2D7D0AE42A
:100D3B00FF120FC67B2D7D0DE4FF120FC67B327D9C
:0F0D4B0006E4FF120FC67B307D07E4FF020FC6E0
:100EDD00852F3B85303C853745853846854349858B
:100EED00444A85323D853540853E478541488534A8
:050EFD003F8536422292
:100B2B00120EDDAB3C7D0E7F01120FC6AB457D0C6B
:100B3B007F01120FC6AB467D0B7F01120FC6AB496F
:100B4B007D097F01120FC6AB4A7D087F01120FC6CC
:100B5B00AB407D0EE4FF120FC6AB3D7D0FE4FF12E1
:100B6B000FC6AB487D0BE4FF120FC6AB477D0CE401
:100B7B00FF120FC6AB427D09E4FF120FC6AB3F7DE0
:0F0B8B0008E4FF120FC6AB3B7D0F7F01020FC6C0
:100B9A001210477BFF7A0E79C6E4FD7F01120E1C04
:100BAA007BFF7A0E79CCE4FDFF120E1C7B307D08A8
:100BBA007F01120FC67B307D097F01120FC67B3081
:100BCA007D0B7F01120FC67B307D0C7F01120FC691
:100BDA007B307D0E7F01120FC67B3A7D0A7F0112A0
:100BEA000FC67B3A7D0D7F01120FC67B307D0F7FCA
:090BFA0001120FC67F10020F2545
:09105100120CBC1209220209E292
:10092200E4FD7F8E120DDD7F81120D5A1210368F7B
:10093200217D807F8E120DDDE52175F00A84E5F0C0
:100942002430F52FE52175F00A842430F530AB2FE1
:100952007D0F7F01120FC6AB307D0E7F01120FC6D5
:10096200E4FD7F8E120DDD7F83120D5A1210368F39
:10097200247D807F8E120DDDE52475F00A84E5F07A
:100982002430F537E52475F00A842430F538AB3786
:100992007D0C7F01120FC6AB387D0B7F01120FC693
:1009A200E4FD7F8E120DDD7F85120D5A1210368FF7
:1009B200297D807F8E120DDDE52975F00A84E5F030
:1009C2002430F543E52975F00A842430F544AB431D
:1009D2007D097F01120FC6AB447D087F01020FC65D
:1009E200E4FD7F8E120DDD7F87120D5A1210368FB5
:1009F200227D807F8E120DDDE52275F00A84E5F0FE
:100A02002430F532E52275F00A842430F535FB7D79
:100A12000EE4FF120FC6AB327D0FE4FF120FC6E4E5
:100A2200FD7F8E120DDD7F89120D5A1210368F272F
:100A32007D807F8E120DDDE52775F00A84E5F024B6
:100A420030F53EE52775F00A842430F541FB7D0B35
:100A5200E4FF120FC6AB3E7D0CE4FF120FC6E4FDAD
:100A62007F8E120DDD7F8D120D5A1210368F237D6F
:100A7200807F8E120DDDE52375F00A84E5F02430C7
:100A8200F534E52375F00A842430F536FB7D09E45C
:0D0A9200FF120FC6AB347D08E4FF020FC653
:100C0300300164121074120B9A30015B1208001247
:100C13000E527FC8120FF920B3EF7F0A120FF9208B
:100C2300B3E730B3FD7D087F01120FA88F397D092B
:100C33007F01120FA88F3A7D0B7F01120FA88F310E
:100C43007D0C7F01120FA88F337D0E7F01120FA839
:100C53008F397D0F7F01120FA88F3A1210477F0C37
:080C6300120F25C20180A2223C
:100D9D0030003C121047121074120D0B120B2B7FEA
:100DAD0010120F25300028120800120E527FC812A3
:100DBD000FF920B2EF7F0A120FF920B2E730B2FD22
:100DCD00120E841210477F0C120F25C20080D522FF
:100E84007D0F7F01120FA88F3B7D0E7F01120FA8EB
:100E94008F3CE53C75F00AA4253BF525E4FD7F8EE7
:100EA400120DDDAD257F80120DDD7D807F8E020D5C
:010EB400DD60
:100C6B00E4FD7F8E120DDD7D1E7F80120DDD7F1E5C
:100C7B00121022AD077F82120DDD7F0A121022ADFA
:100C8B00077F84120DDD7F12121022AD077F8612B3
:100C9B000DDD7F03121022AD077F88120DDD7F164D
:100CAB00121022AD077F8C120DDD7D807F8E020D21
:010CBB00DD5B
:07105A00D2AFD2A8D2882218
:03000B0002106878
:06106800200002D200325C
:07106100D2AFD2AAD28A220D
:0300130002106E6A
:06106E00200102D2013254
:03107D00DFFE2271
:100FF900AE07AF061EEF600C7FF812107D7FF81266
:05100900107D80EE22C5
:03107900010E3035
:100F6900C2A6D2A57F0A12107DC2A77F0A12107DE0
:0F0F7900D2A77F0A12107D85800DE5805480FF7E
:010F88002246
:100F25008F0C120F69EF70FAC2A6C2A5D2A77F0A6D
:100F350012107D850C807F0A12107DC2A77F0502E5
:020F4500107D1D
:10100E00120F69EF70FAD2A6D2A5D2A77F05120FE2
:03101E00F9AF80A7
:0110210022AC
:040FA8008F088D0918
:100FAC00EF7006E5092480800AE50864017008E505
:0A0FBC000924C0FF120F2502100ED9
:100F47008F0C120F69EF70FAD2A6C2A5D2A77F0A3B
:100F570012107D850C807F0A12107DC2A77F0A02BE
:020F6700107DFB
:100FC6008D088B09EF7006E50824808004E5082467
:0A0FD600C0FF120F25AF09020F47FC
:100E1C008D088B098A0A890BEF7006E508248080FF
:100E2C0004E50824C0FF120F25AB09AA0AA90B126E
:100E3C000FE0FF6010120F477401250BF50BE43522
:060E4C000AF50A80E42211
:0A1047007F01120F257F05020FF94B
:100F02007F38120F257F05120FF97F08120F257FF8
:100F120001120F257F06120F257F05120FF97F0C94
:030F2200020F2596
:051074007F0F020F25B3
:1008000030B1030209217F0A120FF930B103020946
:100810002130B1FD050FE50F640270030208EBE51E
:100820000F640470030208EBE50F6406600302081E
:10083000DD7F02120F257F05120FF97F14120F259D
:100840007F0512107D7F14120F257F0512107D7F0A
:1008500014120F257F0512107D7F14120F257F05BE
:1008600012107D7F14120F257F0512107D7F141248
:100870000F257F0512107D7F14120F257F051210A2
:100880007D7F14120F257F0512107D7F14120F2516
:100890007F0512107D7F14120F257F0512107D7FBA
:1008A00014120F257F0512107D7F14120F257F056E
:1008B00012107D7F14120F257F0512107D7F1412F8
:1008C0000F257F0512107D7F14120F257F05121052
:1008D0007D7F14120F257F0512107D8026E50F64A1
:1008E0000870028006E50F640A70077F10120F255A
:1008F0008011E50F640E700BF50F7B307D0F7F01CB
:10090000120FC620B20E7F05120FF920B20630B2C8
:10091000FDE4F50F200003E4F50FD2027F10120F63
:0209200025228E
:100E520020B0177F0A120FF920B00F30B0FDAF0E8D
:100E6200120F477F10120F25050E300206750E3045
:100E7200C20222E50E643A7002800320B303750EAB
:020E820030221C
:100DDD00C2B5C2B6D2B5E4FEEEC394087480948059
:100DED00500FC2B6EF1392B4D2B6EFC313FF0E80FD
:100DFD00E7E4FEEEC3940874809480500FC2B6ED04
:0E0E0D001392B4D2B6EDC313FD0E80E7C2B54A
:010E1B0022B4
:100D5A00C2B5C2B6D2B5E4FDEDC3940874809480DE
:100D6A00500FC2B6EF1392B4D2B6EFC313FF0D8081
:100D7A00E7E4FDEDC39408748094805011C2B6EE86
:100D8A00C313FE30B403430680D2B60D80E5C2B564
:020D9A00AF06A2
:010D9C002234
:10102200EF75F00A84FEEF75F00A84AFF0EEC45457
:03103200F02FFF9D
:011035002298
:10103600EFC4540FFEEF540FFFEE75F00AA42FFF16
:011046002287
:03000000020A9F52
:0C0A9F00787FE4F6D8FD75814A020AE673
:100FE000BB010689828A83E0225002E722BBFE020F
:090FF000E32289828A83E4932242
:100AAB00020F89E493A3F8E493A34003F68001F2C9
:100ABB0008DFF48029E493A3F85407240CC8C3334C
:100ACB00C4540F4420C8834004F456800146F6DF1B
:100ADB00E4800B0102040810204080901079E47E22
:100AEB00019360BCA3FF543F30E509541FFEE49310
:100AFB00A360010ECF54C025E060A840B8E493A3D7
:100B0B00FAE493A3F8E493A3C8C582C8CAC583CA01
:100B1B00F0A3C8C582C8CAC583CADFE9DEE780BEB9
:01107C000073
:00000001FF
