:03000000020DBA34
:0C0DBA00787FE4F6D8FD758134020D68E6
:100D2900444154450054494D450054696D6500419D
:060D3900646A757374008A
:100D6800120CFA120B53120AF61208007F32120DF7
:030D78003F80F3C6
:100AF6007BFF7A0D7929E4FDFCFF120C2E7BFF7A31
:100B06000D792EE4FDFC7F01120C2E7B3A7D0A7CCA
:100B1600007F01120C6E7B3A7D0D7C007F01120C6A
:100B26006E7B2D7D0A7C00E4FF120C6E7B2D7D0D05
:100B36007C00E4FF120C6E7B327D067C00E4FF1223
:0D0B46000C6E7B307D077C00E4FF020C6E1E
:100A9600120DE97BFF7A0D7933E4FDFCFF120C2E73
:100AA6007BFF7A0D7938E4FDFC7F01120C2E7B3A30
:100AB6007D0A7C007F01120C6E7B3A7D0D7C007FE7
:100AC60001120C6E7B2D7D0A7C00E4FF120C6E7BFE
:100AD6002D7D0D7C00E4FF120C6E7B327D067C00C2
:100AE600E4FF120C6E7B307D077C00E4FF020C6E87
:100B5300E4FF120CBD7F03120D54AD077F8C120B03
:100B6300ED7F02120D54AD077F88120BED7F181233
:100B73000D54AD077F86120BED7F0B120D54AD079D
:100B83007F84120BED7F2D120D54AD077F82120B64
:100B9300ED7F0E120D54AD077F80120BED7F010226
:020BA3000CBD87
:10080000E4FF120CBD7F8D120BA5120D8C8F087F9B
:1008100089120BA5120D8C8F0B7F87120BA5120D61
:100820008C8F0E7F85120BA5120D8C8F117F83127A
:100830000BA5120D8C8F147F81120BA5120D8C8FBE
:10084000177F01120CBDE50E75F00A84AFF0120D92
:1008500054EF2430F50FE50E75F00A84FF120D54A5
:10086000EF2430F510E50B75F00A84AFF0120D544B
:10087000EF2430F50CE50B75F00A84FF120D54EFF0
:100880002430F50DE50875F00A84AFF0120D54EF31
:100890002430F509E50875F00A84FF120D54EF24A1
:1008A00030F50AE51775F00A84AFF0120D54EF2405
:1008B00030F518E51775F00A84FF120D54EF243057
:1008C000F519E51475F00A84AFF0120D54EF2430D9
:1008D000F515E51475F00A84FF120D54EF2430F578
:1008E00016E51175F00A84AFF0120D54EF2430F5BF
:1008F00012E51175F00A84FF120D54EF2430F51340
:10090000AB0F7D0F7C00E4FF120C6EAB107D0E7CF4
:1009100000E4FF120C6EAB0C7D0C7C00E4FF120CAB
:100920006EAB0D7D0B7C00E4FF120C6EAB097D09F4
:100930007C00E4FF120C6EAB0A7D087C00E4FF1221
:100940000C6EAB197D0E7C007F01120C6EAB157D19
:100950000C7C007F01120C6EAB167D0B7C007F01BE
:10096000120C6EAB127D097C007F01120C6EAB1372
:100970007D087C007F01120C6EAB187D0F7C007F20
:0409800001020C6EF6
:100984007D0F7C007F01120C978F2E7D0E7C007FE3
:1009940001120C978F2F7D0C7C007F01120C978F16
:1009A4002B7D0B7C007F01120C978F2C7D097C0022
:1009B4007F01120C978F287D087C007F01120C9711
:1009C4008F297D0E7C00E4FF120C978F257D0F7C10
:1009D40000E4FF120C978F267D0B7C00E4FF120CC1
:1009E400978F227D0C7C00E4FF120C978F237D09E6
:1009F4007C00E4FF120C978F1F7D087C00E4FF123B
:100A04000C978F20E52F75F00AA4252EF52DE52CE3
:100A140075F00AA4252BF52AE52975F00AA42528E2
:100A2400F527E52675F00AA42525F524E52375F0B8
:100A34000AA42522F521E52075F00AA4251FF51E38
:100A4400E4FF120CBDAF2D120D54AD077F80120BC5
:100A5400EDAF2A120D54AD077F82120BEDAF2712B2
:100A64000D54AD077F84120BEDAF24120D54AD0766
:100A74007F86120BEDAF21120D54AD077F88120B48
:100A8400EDAF1E120D54AD077F8C120BED7F0102EA
:020A94000CBD97
:070DDB00D2AFD2A8D288229A
:03000B00020DFDE6
:040DFD007533013217
:070DE200D2AFD2AAD28A228F
:03001300020E01D9
:040E01007534013211
:100CFA00120DF87F05120D3F7F08120D9D120DE9A6
:080D0A007F01120D7B020DF3C5
:0D0DAD00C2A6D2A5C2A700D2A7E5803322BE
:100D9D00C2A6C2A5D2A78F8000C2A77F02020D3FB7
:0C0DC600D2A6C2A5D2A78F8000C2A7222F
:100C6E008F1A8C1B8D1C8B1DEF7006E51C2480804B
:100C7E000AE51A64017008E51C24C0FF120D9DAF31
:090C8E001D120DC67F02020D3F8C
:100C2E008F088C098D0A8B0B8A0C890DEF7006E5E7
:100C3E000A2480800AE50864017008E50A24C0FFD2
:100C4E00120D9DAB0BAA0CA90D120CE1FF60101238
:100C5E000DC67401250DF50DE4350CF50C80E4225E
:080DD200D2A6D2A5D2A7AF8082
:010DDA0022F6
:060C97008F308C318D321C
:100C9D00120DAD40FBE5307006E5322480800AE58B
:100CAD003064017008E53224C0FF120D9D020DD293
:050DE9007F01020D9DD9
:050DEE007F02020D9DD3
:100D7B00EF1460070470097F0480027F06120D9D3B
:010D8B002245
:050DF3007F0C020D9DC4
:100D1200EF14600D04700F7F18120D9D7F05020DF8
:070D22003F7F14120D9D221A
:050DF8007F38020D9D93
:030E0500020D9D3E
:030E0800DFFE22E8
:100D3F00AE07AF061EEF600C7FF8120E087FF81299
:050D4F000E0880EE22F9
:100BED00C2B5C2B6D2B5E4FBFAC2B6EF1392B4D217
:100BFD00B6EFC313FF0BBB00010AEB64084A70E9A3
:100C0D00E4FAFBC2B6ED1392B4D2B6EDC313FD0BED
:100C1D00BB00010AEB64084A70E9C2B57F02020D00
:010C2D003F87
:100BA500C2B5C2B6D2B5E4FBFAC2B6EF1392B4D25F
:100BB500B6EFC313FF0BBB00010AEB64084A70E9EB
:100BC500E4FAFBC2B6E51AC313F51A30B403431AA7
:100BD50080D2B60BBB00010AEB64084A70E5C2B5CA
:070BE5007F01120D3FAF1A62
:010BEC0022E6
:100CBD008F1AEF3395E0FEEF64014E70077D807F54
:100CCD008E120BEDAF1AEF3395E04F7006FD7F8E50
:040CDD00120BED22E7
:100D5400EF75F00A84FEEF75F00A84AFF0EEC45428
:030D6400F02FFF6E
:010D67002269
:100D8C00EFC4540FFEEF540FFFEE75F00AA42FFFC3
:010D9C002234
:100CE100BB010689828A83E0225002E722BBFE0211
:090CF100E32289828A83E4932244
:00000001FF
