:10065C00C2B5C2B6D2B5E4FEEEC3940874809480E1
:10066C00500FC2B6EF1392B4D2B6EFC313FF0E8085
:10067C00E7E4FEEEC3940874809480500FC2B6ED8C
:0E068C001392B4D2B6EDC313FD0E80E7C2B5D3
:01069A00223D
:1005D900C2B5C2B6D2B5E4FDEDC394087480948067
:1005E900500FC2B6EF1392B4D2B6EFC313FF0D800A
:1005F900E7E4FDEDC39408748094805011C2B6EE0F
:10060900C313FE30B403430680D2B60D80E5C2B5EC
:02061900AF062A
:01061B0022BC
:10085C00EF75F00A84FEEF75F00A84AFF0EEC45425
:03086C00F02FFF6B
:01086F002266
:10088400EFC4540FFEEF540FFFEE75F00AA42FFFD0
:010894002241
:0308BB00010E30FB
:1007B700C2A5D2A67F0A1208BFC2A77F0A1208BF26
:0F07C700D2A77F0A1208BF85800DE5805480FFFE
:0107D6002200
:100773008F0C1207B7EF70FAC2A5C2A6D2A77F0AE1
:100783001208BF850C807F0A1208BFC2A77F05022B
:0207930008BF9D
:100870001207B7EF70FAD2A5D2A6D2A77F05120849
:0308800047AF80FF
:010883002252
:0407F6008F088D09D2
:1007FA00EF7006E5092480800AE50864017008E5BF
:0A080A000924C0FF120773020870F2
:100795008F0C1207B7EF70FAD2A5C2A6D2A77F0AAF
:1007A5001208BF850C807F0A1208BFC2A77F0A0204
:0207B50008BF7B
:100814008D088B09EF7006E50824808004E5082420
:0A082400C0FF120773AF0902079529
:10069B008D088B098A0A890BEF7006E50824808088
:1006AB0004E50824C0FF120773AB09AA0AA90B12B1
:1006BB00082EFF60101207957401250BF50BE4351E
:0606CB000AF50A80E4229A
:0A0895007F011207737F0502084778
:100750007F381207737F051208477F081207737FDF
:10076000011207737F061207737F051208477F0C7B
:030770000207730A
:05000E007F0F020773E3
:1000160030B2030201377F0A12084730B2030201E9
:100026003730B2FD050FE50F64027003020101E5EA
:100036000F64047003020101E50F64066003020009
:10004600F37F021207737F051208477F14120773A6
:100056007F051208BF7F141207737F051208BF7F42
:10006600141207737F051208BF7F141207737F05EA
:100076001208BF7F141207737F051208BF7F141280
:1000860007737F051208BF7F141207737F051208D6
:10009600BF7F141207737F051208BF7F1412077300
:1000A6007F051208BF7F141207737F051208BF7FF2
:1000B600141207737F051208BF7F141207737F059A
:1000C6001208BF7F141207737F051208BF7F141230
:1000D60007737F051208BF7F141207737F05120886
:1000E600BF7F141207737F051208BF8026E50F64D1
:1000F6000870028006E50F640A70077F1012077306
:100106008011E50F640E700BF50F7B307D0F7F01BC
:1001160012081420B40E7F0512084720B40630B426
:10012600FDE4F50F200003E4F50FD2027F1012075D
:02013600732232
:1006D10020B3177F0A12084720B30F30B3FDAF0EC6
:1006E1001207957F10120773050E300206750E3042
:1006F100C20222E50E643A7002800320B503750E32
:020701003022A4
:10070300446174650054696D650041646A7573746E
:1007130000414C41524D0053455420202020204E8F
:08072300616E6F644161610029
:1007D7001204EA1200031208A81207501208951211
:0F07E700089F12061C1204827F3212084780F00E
:10053B007BFF7A077903E4FDFF12069B7BFF7A07AB
:10054B007908E4FD7F0112069B7B3A7D0A7F01123D
:10055B0008147B3A7D0D7F011208147B2D7D0AE474
:10056B00FF1208147B2D7D0DE4FF1208147B327DE6
:0F057B0006E4FF1208147B307D07E4FF0208142A
:10058A007BFF7A07790DE4FD7F0112069B7BFF7AD8
:10059A00077908E4FDFF12069B7B3A7D0A7F011268
:1005AA0008147B3A7D0D7F011208147B2D7D0AE425
:1005BA00FF1208147B2D7D0DE4FF1208147B327D97
:0F05CA0006E4FF1208147B307D07E4FF020814DB
:10072B00852F3B85303C8537458538468543498544
:10073B00444A85323D853540853E47854148853461
:05074B003F853642224B
:1003410012072BAB3C7D0E7F01120814AB457D0CCF
:100351007F01120814AB467D0B7F01120814AB49D3
:100361007D097F01120814AB4A7D087F0112081430
:10037100AB407D0EE4FF120814AB3D7D0FE4FF128C
:100381000814AB487D0BE4FF120814AB477D0CE465
:10039100FF120814AB427D09E4FF120814AB3F7D44
:0F03A10008E4FF120814AB3B7D0F7F0102081424
:1003B0001208957BFF7A077914E4FD7F0112069BF2
:1003C0007BFF7A07791AE4FDFF12069B7B307D08DC
:1003D0007F011208147B307D097F011208147B30E5
:1003E0007D0B7F011208147B307D0C7F01120814F5
:1003F0007B307D0E7F011208147B3A7D0A7F01124B
:1004000008147B3A7D0D7F011208147B307D0F7F2D
:09041000011208147F10020773A9
:09089F0012053B1201380201F8B8
:10013800E4FD7F8E12065C7F811205D91208848F38
:10014800217D807F8E12065CE52175F00A84E5F03A
:100158002430F52FE52175F00A842430F530AB2FD3
:100168007D0F7F01120814AB307D0E7F0112081439
:10017800E4FD7F8E12065C7F831205D91208848FF6
:10018800247D807F8E12065CE52475F00A84E5F0F4
:100198002430F537E52475F00A842430F538AB3778
:1001A8007D0C7F01120814AB387D0B7F01120814F7
:1001B800E4FD7F8E12065C7F851205D91208848FB4
:1001C800297D807F8E12065CE52975F00A84E5F0AA
:1001D8002430F543E52975F00A842430F544AB430F
:1001E8007D097F01120814AB447D087F01020814C1
:1001F800E4FD7F8E12065C7F871205D91208848F72
:10020800227D807F8E12065CE52275F00A84E5F077
:100218002430F532E52275F00A842430F535FB7D6B
:100228000EE4FF120814AB327D0FE4FF120814E449
:10023800FD7F8E12065C7F891205D91208848F27EC
:100248007D807F8E12065CE52775F00A84E5F02430
:1002580030F53EE52775F00A842430F541FB7D0B27
:10026800E4FF120814AB3E7D0CE4FF120814E4FD11
:100278007F8E12065C7F8D1205D91208848F237D2C
:10028800807F8E12065CE52375F00A84E5F0243041
:10029800F534E52375F00A842430F536FB7D09E44E
:0D02A800FF120814AB347D08E4FF020814B7
:1004820030016412000E1203B030015B120016122A
:1004920006D17FC812084720B5EF7F0A120847200D
:1004A200B5E730B5FD7D087F011207F68F397D096A
:1004B2007F011207F68F3A7D0B7F011207F68F310B
:1004C2007D0C7F011207F68F337D0E7F011207F636
:1004D2008F397D0F7F011207F68F3A1208957F0C34
:0804E200120773C20180A2227F
:10061C0030003C12089512000E12058A1203417F1D
:10062C00101207733000281200161206D17FC81260
:10063C00084720B4EF7F0A12084720B4E730B4FD16
:10064C001204191208957F0C120773C20080D52270
:100419007D0F7F011207F68F3B7D0E7F011207F6D4
:100429008F3CE53C75F00AA4253BF5257D0B7F0142
:100439001207F68F457D0C7F011207F68F46E546B8
:1004490075F00AA42545F52A7D0E7F011207F68F5E
:10045900497D0F7F011207F68F4AE54A75F00AA414
:100469002549F52CE4FD7F8E12065CAD257F8012AF
:09047900065C7D807F8E02065CAA
:1004EA00E4FD7F8E12065C7D1E7F8012065C7F1EF5
:1004FA0012085CAD077F8212065C7F0A12085CADA7
:10050A00077F8412065C7F1212085CAD077F861291
:10051A00065C7F0312085CAD077F8812065C7F16B3
:10052A0012085CAD077F8C12065C7D807F8E020606
:01053A005C64
:07000300D2AFD2A8D288227F
:03000B000208AF39
:0608AF00200002D200321D
:0708A800D2AFD2AAD28A22CE
:030013000208B52B
:0608B500200102D2013215
:0308BF00DFFE2237
:10084700AE07AF061EEF600C7FF81208BF7FF812E5
:0508570008BF80EE2245
:030000000202B544
:0C02B500787FE4F6D8FD75814A0202FC57
:10082E00BB010689828A83E0225002E722BBFE02C8
:09083E00E32289828A83E49322FB
:1002C1000207D7E493A3F8E493A34003F68001F275
:1002D10008DFF48029E493A3F85407240CC8C3333E
:1002E100C4540F4420C8834004F456800146F6DF0D
:1002F100E4800B01020408102040809008BBE47EDA
:10030100019360BCA3FF543F30E509541FFEE49301
:10031100A360010ECF54C025E060A840B8E493A3C8
:10032100FAE493A3F8E493A3C8C582C8CAC583CAF3
:10033100F0A3C8C582C8CAC583CADFE9DEE780BEAB
:0108BE000039
:00000001FF
